:100000000C9434000C9449000C9449000C94490061
:100010000C9449000C9449000C9449000C9449003C
:100020000C9449000C9449000C9449000C9449002C
:100030000C9449000C9449000C9449000C9449001C
:100040000C9449000C9449000C9449000C9449000C
:100050000C9449000C9449000C9449000C944900FC
:100060000C9449000C94490011241FBECFEFD8E036
:10007000DEBFCDBF11E0A0E0B1E0E4E7F2E002C0F6
:1000800005900D92A230B107D9F70E94CD000C94D3
:1000900038010C9400002091000130910101C90148
:1000A0009695879520FF02C024EB9227809300014C
:1000B0009093010167E070E00E9424018F5F089532
:1000C0000197EFE9FFE03197F1F700C000000097DA
:1000D000B9F7089588EC90E0EFE9FFE03197F1F788
:1000E00000C000000197C1F708959BB1937C9BB9B4
:1000F000853029F168F4833009F44BC0843069F10C
:10010000823009F448C088E09BB1892B8BB90895EF
:10011000863029F58BB18C638BB90E946A008BB154
:10012000837C8BB90E946A008BB18C638BB90E946F
:100130006A008BB1837C8BB90E946A000EC08BB1C0
:100140008C638BB98AEF90E00E9460008BB1837C56
:100150008BB98AEF90E00E9460008CE3D5CF8BB121
:100160008C638BB90E946A008BB1837C8BB90E942F
:100170006A008BB18C638BB90E946A008BB1837C5F
:100180008BB90E946A008BB18C618BB98CE291E0D3
:10019000E2CF84E3B9CF84E2B7CF8AB18C638AB966
:1001A00056985E9A81E00E9475000E944B004E991D
:1001B000FCCF8FEF90E722E0815090402040E1F7A4
:1001C00000C0000089B1C82FC07486FDEECF02E3E5
:1001D00010E08C2F66E00E941801892F8F5F0E942B
:1001E0007500C8010E946000CF5F0C5E1F4FCA30CF
:1001F00081F70E944B000E9475004E9B0AC08FEF52
:1002000090E722E0815090402040E1F700C00000DC
:10021000CCCF4E99F2CF8FEF99E028E281509040F9
:100220002040E1F700C000004E99E7CF83E0E3CF24
:10023000992778E0880F991F961708F0961B881F5A
:100240007A95C9F780950895AA1BBB1B51E107C099
:10025000AA1FBB1FA617B70710F0A61BB70B881F56
:10026000991F5A95A9F780959095BC01CD010895E5
:04027000F894FFCF30
:02027400B1AE29
:00000001FF
