:100000000C9434000C9451000C9451000C947A0020
:100010000C9451000C9451000C9451000C9451001C
:100020000C9451000C9451000C9451000C946800F5
:100030000C9451000C9451000C9451000C945100FC
:100040000C9451000C9451000C9451000C945100EC
:100050000C9451000C9451000C9451000C945100DC
:100060000C9451000C94510011241FBECFEFD8E026
:10007000DEBFCDBF11E0A0E0B1E0EAECF2E002C0EB
:1000800005900D92AC3AB107D9F721E0ACEAB1E0A6
:1000900001C01D92AF3AB207E1F70E9482000C94B2
:1000A00063010C940000FC012081211101C008951E
:1000B00001963091C00035FFFCCF2093C600F3CFEE
:1000C0002FB7F8948091AD019091AE012FBF0895A4
:1000D0008F938FB78F939F938091AD019091AE01D5
:1000E00001969093AE018093AD019F918F918FBF48
:1000F0008F9118958F93189903C081E08093AC017C
:100100008F91189500D000D000D0CDB7DEB7259ADA
:100110002D982098289A80916800816080936800CB
:1001200080916B00816080936B001092C50087E620
:100130008093C40088E08093C10086E08093C20071
:10014000109280008BE08093810089EF90E0909383
:1001500089008093880082E080936F00789482E029
:1001600091E00E94530089E191E00E9453001092B7
:10017000AC012D9886E491E00E945300209100018B
:1001800030910101C9019695879520FF02C024EBAB
:100190009227809300019093010161EA7FE00E9421
:1001A000250188519C4F8C010E9460007C010E94B7
:1001B00060008E199F098017910738F02D9A1092D0
:1001C000AC010E9460008C0112C08091AC018030B3
:1001D00071F38CE891E00E9453001092AC0128C0AA
:1001E0000E946000801B910B893B9B4020F4809112
:1001F000AC018030A9F32D988091AC01803011F1D1
:100200000E946000801B910B8C0185E591E00E94AB
:1002100053004AE0CE010196BC01C8010E94390199
:10022000CE0101960E94530085E691E00E945300A2
:100230008FEF97EA21E6815090402040E1F700C01F
:10024000000095CF8DE691E0F1CFAA1BBB1B51E1D9
:1002500007C0AA1FBB1FA617B70710F0A61BB70B36
:10026000881F991F5A95A9F780959095BC01CD01DB
:100270000895BB27FB015527AA27880F991FAA1F9E
:10028000A41710F0A41B83955051B9F7A05DAA33B1
:1002900008F0A95DA193009779F7B111B19311927C
:1002A000CB010C945301DC01FC01672F7191772382
:1002B000E1F7329704C07C916D9370836291AE1721
:0A02C000BF07C8F30895F894FFCFBC
:1002CA00EFBE5265616374696F6E2054696D652073
:1002DA005465737465720D0A005761697420666FFC
:1002EA007220746865204C45442C207468656E2021
:1002FA0070726573732074686520627574746F6EAA
:10030A00210D0A0D0A004765742072656164792E11
:10031A002E2E0D0A005265616374696F6E2074692E
:10032A006D653A2000206D730D0A0D0A00546F6F37
:10033A0020736C6F772120286F76657220332073C3
:10034A0065636F6E6473290D0A0D0A0046616C734A
:10035A006520737461727421205761697420666F15
:0C036A0072204C45442E0D0A0D0A0000C4
:00000001FF
