:100000000C9434000C9451000C9451000C947A0020
:100010000C9451000C9451000C9451000C9451001C
:100020000C9451000C9451000C9451000C946800F5
:100030000C9451000C9451000C9451000C945100FC
:100040000C9451000C9451000C9451000C945100EC
:100050000C9451000C9451000C9451000C945100DC
:100060000C9451000C94510011241FBECFEFD8E026
:10007000DEBFCDBF11E0A0E0B1E0EAE1F3E002C0F5
:1000800005900D92A03DB107D9F721E0A0EDB1E0B8
:1000900001C01D92A33DB207E1F70E9482000C94BB
:1000A0008B010C940000FC012081211101C00895F6
:1000B00001963091C00035FFFCCF2093C600F3CFEE
:1000C0002FB7F8948091D1019091D2012FBF08955C
:1000D0008F938FB78F939F938091D1019091D2018D
:1000E00001969093D2018093D1019F918F918FBF00
:1000F0008F9118958F93189903C081E08093D00158
:100100008F91189500D000D000D0CDB7DEB7259ADA
:100110002D982098289A80916800816080936800CB
:1001200080916B00816080936B001092C50087E620
:100130008093C40088E08093C10086E08093C20071
:10014000109280008BE08093810089EF90E0909383
:1001500089008093880082E080936F00789484E027
:1001600091E00E9453008BE191E00E9453007E01D8
:100170008FEFE81AF80A1092D0012D9888E491E0E8
:100180000E9453004AE0B701809100019091010163
:100190000E946101C7010E9453008BE891E00E9418
:1001A000530088E591E00E945300209102013091B4
:1001B0000301C90196958795DE2CCF2C20FF02C044
:1001C00024EB9227809302019093030161EA7FE080
:1001D0000E944D0188519C4F8C010E9460005C017F
:1001E0000E9460008A199B098017910738F02D9AA8
:1001F0001092D0010E9460008C0112C08091D00149
:10020000803071F381EB91E00E9453001092D00195
:1002100032C00E946000801B910B893B9B4020F400
:100220008091D0018030A9F32D988091D001803049
:1002300089F10E946000801B910B8C01809100016C
:10024000909101010817190700F500930001109320
:1002500001018AE791E00E9453004AE06D2D7C2D58
:10026000C8010E9461018D2D9C2D0E9453008AE8D7
:1002700091E00E9453008FEF97EA21E68150904071
:100280002040E1F700C0000076CF87E691E00E94B1
:100290005300DFCF82E991E0ECCFAA1BBB1B51E1F9
:1002A00007C0AA1FBB1FA617B70710F0A61BB70BE6
:1002B000881F991F5A95A9F780959095BC01CD018B
:1002C0000895BB27FB015527AA27880F991FAA1F4E
:1002D000A41710F0A41B83955051B9F7A05DAA3361
:1002E00008F0A95DA193009779F7B111B19311922C
:1002F000CB010C947B01DC01FC01672F719177230A
:10030000E1F7329704C07C916D9370836291AE17D0
:0A031000BF07C8F30895F894FFCF6B
:10031A00B80BEFBE5265616374696F6E2054696DE4
:10032A0065205465737465720D0A005761697420FB
:10033A00666F7220746865204C45442C2074686589
:10034A006E207072657373207468652062757474A8
:10035A006F6E210D0A0D0A000D0A20426573742082
:10036A007265636F72642000476574207265616408
:10037A00792E2E2E0D0A006E6F7420656E6F7567CA
:10038A00682073706565640D0A005265616374695B
:10039A006F6E2074696D653A2000206D730D0A0D29
:1003AA000A00546F6F20736C6F772120286F76656F
:1003BA00722033207365636F6E6473290D0A0D0A08
:1003CA000046616C736520737461727421205761F1
:1003DA00697420666F72204C45442E0D0A0D0A007E
:00000001FF
