:100000000C9434000C9451000C9451000C94510049
:100010000C9451000C9451000C9451000C9451001C
:100020000C9451000C9451000C9451000C947A00E3
:100030000C9451000C9451000C9451000C945100FC
:100040000C9451000C9451000C9451000C945300EA
:100050000C9451000C9451000C9451000C945100DC
:100060000C9451000C94510011241FBECFEFD8E026
:10007000DEBFCDBF11E0A0E0B1E0E6EFF1E002C0ED
:1000800005900D92AE31B107D9F721E0AEE1B1E0B4
:1000900001C01D92A436B207E1F70E949D000C94A6
:1000A000F9000C9400008F938FB78F939F93EF9379
:1000B000FF9390912301809122019817A9F0E0917C
:1000C0002201F0E0EC5DFE4F80818093C6008091BC
:1000D000220101968F7380932201FF91EF919F91EE
:1000E0008F918FBF8F9118958091C1008F7D8093E4
:1000F000C100F3CF1F921FB61F9211248F939F93BD
:10010000AF93BF9380911E0190911F01A091200198
:10011000B09121010196A11DB11D80931E01909304
:100120001F01A0932001B0932101BF91AF919F9136
:100130008F911F901FBE1F9018951092C50087E6E3
:100140008093C40088E08093C10086E08093C20061
:1001500080E480937C0087E880937A00109280008E
:100160008BE08093810089EF90E0909389008093E9
:10017000880082E080936F007894559AE0E0F1E087
:1001800081919091C00095FFFCCF8093C60081E0E3
:10019000ED31F807A9F760E070E0AB015D9A2FB789
:1001A000F89480911E0190911F01A0912001B091BF
:1001B00021012FBF84179507A607B70798F088512C
:1001C0009C4FAF4FBF4FAC01BD0180917A0080645E
:1001D00080937A0080917A0086FDFCCF8091780030
:1001E000909179008FE99FE00197F1F700C000003E
:0601F000D5CFF894FFCF0B
:1001F60074696D657374616D705F6D732C61646392
:0E0206005F7261772C74656D705F630D0A0086
:00000001FF
