:100000000C9434000C9451000C9451000C94510049
:100010000C9451000C9451000C9451000C9451001C
:100020000C9451000C9451000C9451000C9451000C
:100030000C9451000C9451000C9451000C945100FC
:100040000C9471000C9451000C9451000C945100CC
:100050000C9451000C9451000C9451000C945100DC
:100060000C9451000C94510011241FBECFEFD8E026
:10007000DEBFCDBF11E0A0E0B1E0E0E4F2E002C0FD
:1000800005900D92A233B107D9F721E0A2E3B1E0C8
:1000900001C01D92A333B207E1F70E9488000C94BF
:1000A0001E010C9400004091320129B130E0082E6D
:1000B00002C0359527950A94E2F720FD10C0909173
:1000C0003201941B9233D8F329B130E002C0359548
:1000D00027958A95E2F72095822F8170089580E018
:1000E00008958F938FB78F93809132018F5F8093A4
:1000F00032018F918FBF8F911895009709F4089561
:100100000197EFE9FFE03197F1F700C00000F5CF6C
:10011000219A2098289A8AB18F738AB98BB1806C02
:100120008BB914BC85B5877F85BD85B5816085BDDC
:1001300080916E00816080936E0080E480938000E7
:100140008AE08093810080EE98E09093890080930C
:1001500088007894C9E0D0E011E018991FC08FEFB3
:1001600090E722E0815090402040E1F700C000007D
:10017000189914C08D2F8127D11153C01092890076
:1001800010928800189BFECF9FEF20E732E091503D
:1001900020403040E1F700C00000D82FD111DDCF62
:1001A00086E00E9453008030D1F0C83168F4CF5F00
:1001B000EC2FF0E0EE0FFF1FE050FF4F80819181A8
:1001C00090938900809388004E9BFECF8FEF90E73D
:1001D00022E0815090402040E1F700C0000087E01D
:1001E0000E9453008030D9F0C03069F0C150EC2F2C
:1001F000F0E0EE0FFF1FE050FF4F80819181909360
:100200008900809388004F9BFECF8FEF90E722E01C
:10021000815090402040E1F700C000009ECFD0E028
:100220009CCFEC2FF0E0EE0FFF1FE050FF4F20813E
:1002300031813093890020938800A4CFF894FFCFB8
:10024000E80E170E480D8D0CD50B2E0B8E0AF609F5
:100250006609E0086008E70776070B07A606470669
:10026000EC0597054605FB04B3046F043004F30363
:02027000BA03CF
:00000001FF
