:100000000C9434000C943E000C943E000C943E0082
:100010000C943E000C943E000C943E000C943E0068
:100020000C943E000C943E000C943E000C943E0058
:100030000C943E000C943E000C943E000C943E0048
:100040000C943E000C943E000C943E000C943E0038
:100050000C943E000C943E000C943E000C943E0028
:100060000C943E000C943E0011241FBECFEFD8E04C
:10007000DEBFCDBF0E9440000C9458000C940000DD
:10008000219A299A80ED97E0EFE9FFE03197F1F7A7
:1000900000C000000197C1F7299888EE93E0EFE9CE
:1000A000FFE03197F1F700C000000197C1F7E9CFF9
:0400B000F894FFCFF2
:00000001FF
